{
  "contractName": "BalanceAccounting",
  "abi": [
    {
      "inputs": [],
      "name": "totalSupply",
      "outputs": [
        {
          "internalType": "uint256",
          "name": "",
          "type": "uint256"
        }
      ],
      "stateMutability": "view",
      "type": "function"
    },
    {
      "inputs": [
        {
          "internalType": "address",
          "name": "account",
          "type": "address"
        }
      ],
      "name": "balanceOf",
      "outputs": [
        {
          "internalType": "uint256",
          "name": "",
          "type": "uint256"
        }
      ],
      "stateMutability": "view",
      "type": "function"
    }
  ],
  "bytecode": "0x608060405234801561001057600080fd5b5060e38061001f6000396000f3fe6080604052348015600f57600080fd5b506004361060325760003560e01c806318160ddd14603757806370a0823114604f575b600080fd5b603d607f565b60408051918252519081900360200190f35b603d60048036036020811015606357600080fd5b503573ffffffffffffffffffffffffffffffffffffffff166085565b60005490565b73ffffffffffffffffffffffffffffffffffffffff166000908152600160205260409020549056fea2646970667358221220a00f58065aa8da75deb5dd0bb648fd654ed89d6ae7c2c624a2fcbe467ee2d05664736f6c63430007040033",
  "immutableReferences": {},
  "source": "// SPDX-License-Identifier: MIT\n\npragma solidity >=0.6.0 <0.8.0;\n\nimport \"./SafeMath.sol\";\n\n\ncontract BalanceAccounting {\n    using SafeMath for uint256;\n\n    uint256 private _totalSupply;\n    mapping(address => uint256) private _balances;\n\n    function totalSupply() public view returns (uint256) {\n        return _totalSupply;\n    }\n\n    function balanceOf(address account) public view returns (uint256) {\n        return _balances[account];\n    }\n\n    function _mint(address account, uint256 amount) internal virtual {\n        _totalSupply = _totalSupply.add(amount);\n        _balances[account] = _balances[account].add(amount);\n    }\n\n    function _burn(address account, uint256 amount) internal virtual {\n        _balances[account] = _balances[account].sub(amount, \"Burn amount exceeds balance\");\n        _totalSupply = _totalSupply.sub(amount);\n    }\n\n    function _set(address account, uint256 amount) internal virtual returns(uint256 oldAmount) {\n        oldAmount = _balances[account];\n        if (oldAmount != amount) {\n            _balances[account] = amount;\n            _totalSupply = _totalSupply.add(amount).sub(oldAmount);\n        }\n    }\n}\n",
  "sourcePath": "/home/phillipe/governance-contract/contracts/BalanceAccounting.sol",
  "compiler": {
    "name": "solc",
    "version": "0.7.4+commit.3f05b770.Emscripten.clang"
  },
  "schemaVersion": "3.3.3",
  "updatedAt": "2021-02-21T21:16:56.629Z",
  "devdoc": {
    "kind": "dev",
    "methods": {},
    "version": 1
  },
  "userdoc": {
    "kind": "user",
    "methods": {},
    "version": 1
  }
}