{
  "contractName": "GovernanceMothership",
  "abi": [
    {
      "inputs": [
        {
          "internalType": "contract IERC20",
          "name": "_RIEToken",
          "type": "address"
        }
      ],
      "stateMutability": "nonpayable",
      "type": "constructor"
    },
    {
      "anonymous": false,
      "inputs": [
        {
          "indexed": true,
          "internalType": "address",
          "name": "module",
          "type": "address"
        }
      ],
      "name": "AddModule",
      "type": "event"
    },
    {
      "anonymous": false,
      "inputs": [
        {
          "indexed": true,
          "internalType": "address",
          "name": "previousOwner",
          "type": "address"
        },
        {
          "indexed": true,
          "internalType": "address",
          "name": "newOwner",
          "type": "address"
        }
      ],
      "name": "OwnershipTransferred",
      "type": "event"
    },
    {
      "anonymous": false,
      "inputs": [
        {
          "indexed": true,
          "internalType": "address",
          "name": "module",
          "type": "address"
        }
      ],
      "name": "RemoveModule",
      "type": "event"
    },
    {
      "anonymous": false,
      "inputs": [
        {
          "indexed": true,
          "internalType": "address",
          "name": "from",
          "type": "address"
        },
        {
          "indexed": true,
          "internalType": "address",
          "name": "to",
          "type": "address"
        },
        {
          "indexed": false,
          "internalType": "uint256",
          "name": "value",
          "type": "uint256"
        }
      ],
      "name": "Transfer",
      "type": "event"
    },
    {
      "inputs": [],
      "name": "RIEToken",
      "outputs": [
        {
          "internalType": "contract IERC20",
          "name": "",
          "type": "address"
        }
      ],
      "stateMutability": "view",
      "type": "function",
      "constant": true
    },
    {
      "inputs": [
        {
          "internalType": "address",
          "name": "account",
          "type": "address"
        }
      ],
      "name": "balanceOf",
      "outputs": [
        {
          "internalType": "uint256",
          "name": "",
          "type": "uint256"
        }
      ],
      "stateMutability": "view",
      "type": "function",
      "constant": true
    },
    {
      "inputs": [],
      "name": "owner",
      "outputs": [
        {
          "internalType": "address",
          "name": "",
          "type": "address"
        }
      ],
      "stateMutability": "view",
      "type": "function",
      "constant": true
    },
    {
      "inputs": [],
      "name": "renounceOwnership",
      "outputs": [],
      "stateMutability": "nonpayable",
      "type": "function"
    },
    {
      "inputs": [],
      "name": "totalSupply",
      "outputs": [
        {
          "internalType": "uint256",
          "name": "",
          "type": "uint256"
        }
      ],
      "stateMutability": "view",
      "type": "function",
      "constant": true
    },
    {
      "inputs": [
        {
          "internalType": "address",
          "name": "newOwner",
          "type": "address"
        }
      ],
      "name": "transferOwnership",
      "outputs": [],
      "stateMutability": "nonpayable",
      "type": "function"
    },
    {
      "inputs": [],
      "name": "name",
      "outputs": [
        {
          "internalType": "string",
          "name": "",
          "type": "string"
        }
      ],
      "stateMutability": "pure",
      "type": "function",
      "constant": true
    },
    {
      "inputs": [],
      "name": "symbol",
      "outputs": [
        {
          "internalType": "string",
          "name": "",
          "type": "string"
        }
      ],
      "stateMutability": "pure",
      "type": "function",
      "constant": true
    },
    {
      "inputs": [],
      "name": "decimals",
      "outputs": [
        {
          "internalType": "uint8",
          "name": "",
          "type": "uint8"
        }
      ],
      "stateMutability": "pure",
      "type": "function",
      "constant": true
    },
    {
      "inputs": [
        {
          "internalType": "uint256",
          "name": "amount",
          "type": "uint256"
        }
      ],
      "name": "stake",
      "outputs": [],
      "stateMutability": "nonpayable",
      "type": "function"
    },
    {
      "inputs": [
        {
          "internalType": "uint256",
          "name": "amount",
          "type": "uint256"
        }
      ],
      "name": "unstake",
      "outputs": [],
      "stateMutability": "nonpayable",
      "type": "function"
    },
    {
      "inputs": [],
      "name": "notify",
      "outputs": [],
      "stateMutability": "nonpayable",
      "type": "function"
    },
    {
      "inputs": [
        {
          "internalType": "address",
          "name": "account",
          "type": "address"
        }
      ],
      "name": "notifyFor",
      "outputs": [],
      "stateMutability": "nonpayable",
      "type": "function"
    },
    {
      "inputs": [
        {
          "internalType": "address[]",
          "name": "accounts",
          "type": "address[]"
        }
      ],
      "name": "batchNotifyFor",
      "outputs": [],
      "stateMutability": "nonpayable",
      "type": "function"
    },
    {
      "inputs": [
        {
          "internalType": "address",
          "name": "module",
          "type": "address"
        }
      ],
      "name": "addModule",
      "outputs": [],
      "stateMutability": "nonpayable",
      "type": "function"
    },
    {
      "inputs": [
        {
          "internalType": "address",
          "name": "module",
          "type": "address"
        }
      ],
      "name": "removeModule",
      "outputs": [],
      "stateMutability": "nonpayable",
      "type": "function"
    }
  ],
  "bytecode": "0x60a060405234801561001057600080fd5b506040516115f73803806115f78339818101604052602081101561003357600080fd5b5051600061003f61009e565b600080546001600160a01b0319166001600160a01b0383169081178255604051929350917f8be0079c531659141344cd1fd0a4f28419497f9722a3daafe3b4186f6b6457e0908290a35060601b6001600160601b0319166080526100a2565b3390565b60805160601c61152e6100c960003980610659528061070f5280610c7a525061152e6000f3fe608060405234801561001057600080fd5b50600436106101005760003560e01c806370a082311161009757806395d89b411161006657806395d89b411461035e578063a063246114610366578063a694fc3a14610399578063f2fde38b146103b657610100565b806370a0823114610313578063715018a614610346578063899f58981461034e5780638da5cb5b1461035657610100565b80632e17de78116100d35780632e17de7814610204578063313ce56714610221578063482baacf1461023f5780635cf1cd2b1461027057610100565b806306fdde0314610105578063132b4fc81461018257806318160ddd146101b75780631ed86f19146101d1575b600080fd5b61010d6103e9565b6040805160208082528351818301528351919283929083019185019080838360005b8381101561014757818101518382015260200161012f565b50505050905090810190601f1680156101745780820380516001836020036101000a031916815260200191505b509250505060405180910390f35b6101b56004803603602081101561019857600080fd5b503573ffffffffffffffffffffffffffffffffffffffff16610420565b005b6101bf610435565b60408051918252519081900360200190f35b6101b5600480360360208110156101e757600080fd5b503573ffffffffffffffffffffffffffffffffffffffff1661043b565b6101b56004803603602081101561021a57600080fd5b5035610586565b610229610708565b6040805160ff9092168252519081900360200190f35b61024761070d565b6040805173ffffffffffffffffffffffffffffffffffffffff9092168252519081900360200190f35b6101b56004803603602081101561028657600080fd5b8101906020810181356401000000008111156102a157600080fd5b8201836020820111156102b357600080fd5b803590602001918460208302840111640100000000831117156102d557600080fd5b919080806020026020016040519081016040528093929190818152602001838360200280828437600092019190915250929550610731945050505050565b6101bf6004803603602081101561032957600080fd5b503573ffffffffffffffffffffffffffffffffffffffff166108e3565b6101b561090b565b6101b5610a0b565b610247610a1a565b61010d610a36565b6101b56004803603602081101561037c57600080fd5b503573ffffffffffffffffffffffffffffffffffffffff16610a6d565b6101b5600480360360208110156103af57600080fd5b5035610bb8565b6101b5600480360360208110156103cc57600080fd5b503573ffffffffffffffffffffffffffffffffffffffff16610d41565b60408051808201909152601281527f52494520546f6b656e20285374616b6564290000000000000000000000000000602082015290565b6104328161042d836108e3565b610ecb565b50565b60015490565b610443610fd5565b60005473ffffffffffffffffffffffffffffffffffffffff9081169116146104cc57604080517f08c379a000000000000000000000000000000000000000000000000000000000815260206004820181905260248201527f4f776e61626c653a2063616c6c6572206973206e6f7420746865206f776e6572604482015290519081900360640190fd5b6104d7600382610fd9565b61054257604080517f08c379a000000000000000000000000000000000000000000000000000000000815260206004820152601960248201527f4d6f64756c6520616c7265616479207265676973746572656400000000000000604482015290519081900360640190fd5b60405173ffffffffffffffffffffffffffffffffffffffff8216907f0e8ab0265c955b9584b70d255e316c63717f1fb52ba0acfff63bca74ca2e8fad90600090a250565b600081116105f557604080517f08c379a000000000000000000000000000000000000000000000000000000000815260206004820152601c60248201527f456d70747920756e7374616b65206973206e6f7420616c6c6f77656400000000604482015290519081900360640190fd5b6105ff3382611004565b61060c3361042d336108e3565b604080517fa9059cbb00000000000000000000000000000000000000000000000000000000815233600482015260248101839052905173ffffffffffffffffffffffffffffffffffffffff7f0000000000000000000000000000000000000000000000000000000000000000169163a9059cbb9160448083019260209291908290030181600087803b1580156106a157600080fd5b505af11580156106b5573d6000803e3d6000fd5b505050506040513d60208110156106cb57600080fd5b505060408051828152905160009133917fddf252ad1be2c89b69c2b068fc378daa952ba7f163c4a11628f55a4df523b3ef9181900360200190a350565b601290565b7f000000000000000000000000000000000000000000000000000000000000000081565b600061073d60036110a6565b90506060825167ffffffffffffffff8111801561075957600080fd5b50604051908082528060200260200182016040528015610783578160200160208202803683370190505b50905060005b83518110156107cd576107ae8482815181106107a157fe5b60200260200101516108e3565b8282815181106107ba57fe5b6020908102919091010152600101610789565b5060005b828110156108dd576107e46003826110b1565b73ffffffffffffffffffffffffffffffffffffffff1663ad33334885846040518363ffffffff1660e01b8152600401808060200180602001838103835285818151815260200191508051906020019060200280838360005b8381101561085457818101518382015260200161083c565b50505050905001838103825284818151815260200191508051906020019060200280838360005b8381101561089357818101518382015260200161087b565b50505050905001945050505050600060405180830381600087803b1580156108ba57600080fd5b505af11580156108ce573d6000803e3d6000fd5b505050508060010190506107d1565b50505050565b73ffffffffffffffffffffffffffffffffffffffff1660009081526002602052604090205490565b610913610fd5565b60005473ffffffffffffffffffffffffffffffffffffffff90811691161461099c57604080517f08c379a000000000000000000000000000000000000000000000000000000000815260206004820181905260248201527f4f776e61626c653a2063616c6c6572206973206e6f7420746865206f776e6572604482015290519081900360640190fd5b6000805460405173ffffffffffffffffffffffffffffffffffffffff909116907f8be0079c531659141344cd1fd0a4f28419497f9722a3daafe3b4186f6b6457e0908390a3600080547fffffffffffffffffffffffff0000000000000000000000000000000000000000169055565b610a183361042d336108e3565b565b60005473ffffffffffffffffffffffffffffffffffffffff1690565b60408051808201909152600581527f7374524945000000000000000000000000000000000000000000000000000000602082015290565b610a75610fd5565b60005473ffffffffffffffffffffffffffffffffffffffff908116911614610afe57604080517f08c379a000000000000000000000000000000000000000000000000000000000815260206004820181905260248201527f4f776e61626c653a2063616c6c6572206973206e6f7420746865206f776e6572604482015290519081900360640190fd5b610b096003826110bd565b610b7457604080517f08c379a000000000000000000000000000000000000000000000000000000000815260206004820152601960248201527f4d6f64756c6520776173206e6f74207265676973746572656400000000000000604482015290519081900360640190fd5b60405173ffffffffffffffffffffffffffffffffffffffff8216907f75f4e5771d2cdd015405ae76feb37f5792736e71ff18f8a9dd690772a48111a390600090a250565b60008111610c2757604080517f08c379a000000000000000000000000000000000000000000000000000000000815260206004820152601a60248201527f456d707479207374616b65206973206e6f7420616c6c6f776564000000000000604482015290519081900360640190fd5b604080517f23b872dd00000000000000000000000000000000000000000000000000000000815233600482015230602482015260448101839052905173ffffffffffffffffffffffffffffffffffffffff7f000000000000000000000000000000000000000000000000000000000000000016916323b872dd9160648083019260209291908290030181600087803b158015610cc257600080fd5b505af1158015610cd6573d6000803e3d6000fd5b505050506040513d6020811015610cec57600080fd5b50610cf9905033826110df565b610d063361042d336108e3565b60408051828152905133916000917fddf252ad1be2c89b69c2b068fc378daa952ba7f163c4a11628f55a4df523b3ef9181900360200190a350565b610d49610fd5565b60005473ffffffffffffffffffffffffffffffffffffffff908116911614610dd257604080517f08c379a000000000000000000000000000000000000000000000000000000000815260206004820181905260248201527f4f776e61626c653a2063616c6c6572206973206e6f7420746865206f776e6572604482015290519081900360640190fd5b73ffffffffffffffffffffffffffffffffffffffff8116610e3e576040517f08c379a00000000000000000000000000000000000000000000000000000000081526004018080602001828103825260268152602001806114d36026913960400191505060405180910390fd5b6000805460405173ffffffffffffffffffffffffffffffffffffffff808516939216917f8be0079c531659141344cd1fd0a4f28419497f9722a3daafe3b4186f6b6457e091a3600080547fffffffffffffffffffffffff00000000000000000000000000000000000000001673ffffffffffffffffffffffffffffffffffffffff92909216919091179055565b600380546040805160208084028201810190925282815260609390929091830182828015610f1857602002820191906000526020600020905b815481526020019060010190808311610f04575b5050505050905060005b81518110156108dd57818181518110610f3757fe5b602002602001015160001c73ffffffffffffffffffffffffffffffffffffffff166327a2743385856040518363ffffffff1660e01b8152600401808373ffffffffffffffffffffffffffffffffffffffff16815260200182815260200192505050600060405180830381600087803b158015610fb257600080fd5b505af1158015610fc6573d6000803e3d6000fd5b50505050806001019050610f22565b3390565b6000610ffb8373ffffffffffffffffffffffffffffffffffffffff841661114c565b90505b92915050565b604080518082018252601b81527f4275726e20616d6f756e7420657863656564732062616c616e6365000000000060208083019190915273ffffffffffffffffffffffffffffffffffffffff851660009081526002909152919091205461106c918390611196565b73ffffffffffffffffffffffffffffffffffffffff831660009081526002602052604090205560015461109f9082611247565b6001555050565b6000610ffe826112be565b6000610ffb83836112c2565b6000610ffb8373ffffffffffffffffffffffffffffffffffffffff8416611340565b6001546110ec9082611424565b60015573ffffffffffffffffffffffffffffffffffffffff821660009081526002602052604090205461111f9082611424565b73ffffffffffffffffffffffffffffffffffffffff90921660009081526002602052604090209190915550565b60006111588383611498565b61118e57508154600181810184556000848152602080822090930184905584548482528286019093526040902091909155610ffe565b506000610ffe565b6000818484111561123f576040517f08c379a00000000000000000000000000000000000000000000000000000000081526004018080602001828103825283818151815260200191508051906020019080838360005b838110156112045781810151838201526020016111ec565b50505050905090810190601f1680156112315780820380516001836020036101000a031916815260200191505b509250505060405180910390fd5b505050900390565b6000828211156112b857604080517f08c379a000000000000000000000000000000000000000000000000000000000815260206004820152601e60248201527f536166654d6174683a207375627472616374696f6e206f766572666c6f770000604482015290519081900360640190fd5b50900390565b5490565b8154600090821061131e576040517f08c379a00000000000000000000000000000000000000000000000000000000081526004018080602001828103825260228152602001806114b16022913960400191505060405180910390fd5b82600001828154811061132d57fe5b9060005260206000200154905092915050565b6000818152600183016020526040812054801561141a5783547fffffffffffffffffffffffffffffffffffffffffffffffffffffffffffffffff808301919081019060009087908390811061139157fe5b90600052602060002001549050808760000184815481106113ae57fe5b6000918252602080832090910192909255828152600189810190925260409020908401905586548790806113de57fe5b60019003818190600052602060002001600090559055866001016000878152602001908152602001600020600090556001945050505050610ffe565b6000915050610ffe565b600082820183811015610ffb57604080517f08c379a000000000000000000000000000000000000000000000000000000000815260206004820152601b60248201527f536166654d6174683a206164646974696f6e206f766572666c6f770000000000604482015290519081900360640190fd5b6000908152600191909101602052604090205415159056fe456e756d657261626c655365743a20696e646578206f7574206f6620626f756e64734f776e61626c653a206e6577206f776e657220697320746865207a65726f2061646472657373a2646970667358221220738daec5f580e884a0a27ba2fd7e2f3bbc2497d53ea4973927f9af5850af5c4f64736f6c63430007040033",
  "immutableReferences": {
    "603": [
      {
        "length": 32,
        "start": 1625
      },
      {
        "length": 32,
        "start": 1807
      },
      {
        "length": 32,
        "start": 3194
      }
    ]
  },
  "source": "// SPDX-License-Identifier: MIT\n\npragma solidity >=0.6.0 <0.8.0;\n\nimport \"./Ownable.sol\";\nimport \"@openzeppelin/contracts/math/SafeMath.sol\";\nimport \"@openzeppelin/contracts/token/ERC20/IERC20.sol\";\nimport \"@openzeppelin/contracts/utils/EnumerableSet.sol\";\nimport \"./IGovernanceModule.sol\";\nimport \"./BalanceAccounting.sol\";\n\n\ncontract GovernanceMothership is Ownable, BalanceAccounting {\n    using SafeMath for uint256;\n    using EnumerableSet for EnumerableSet.AddressSet;\n\n    event Transfer(address indexed from, address indexed to, uint256 value);\n    event AddModule(address indexed module);\n    event RemoveModule(address indexed module);\n\n    IERC20 public immutable RIEToken;\n\n    EnumerableSet.AddressSet private _modules;\n\n    constructor(IERC20 _RIEToken) {\n        RIEToken = _RIEToken;\n    }\n\n    function name() external pure returns(string memory) {\n        return \"RIE Token (Staked)\";\n    }\n\n    function symbol() external pure returns(string memory) {\n        return \"stRIE\";\n    }\n\n    function decimals() external pure returns(uint8) {\n        return 18;\n    }\n\n    function stake(uint256 amount) external {\n        require(amount > 0, \"Empty stake is not allowed\");\n\n        RIEToken.transferFrom(msg.sender, address(this), amount);\n        _mint(msg.sender, amount);\n        _notifyFor(msg.sender, balanceOf(msg.sender));\n        emit Transfer(address(0), msg.sender, amount);\n    }\n\n    function unstake(uint256 amount) external {\n        require(amount > 0, \"Empty unstake is not allowed\");\n\n        _burn(msg.sender, amount);\n        _notifyFor(msg.sender, balanceOf(msg.sender));\n        RIEToken.transfer(msg.sender, amount);\n        emit Transfer(msg.sender, address(0), amount);\n    }\n\n    function notify() external {\n        _notifyFor(msg.sender, balanceOf(msg.sender));\n    }\n\n    function notifyFor(address account) external {\n        _notifyFor(account, balanceOf(account));\n    }\n\n    function batchNotifyFor(address[] memory accounts) external {\n        uint256 modulesLength = _modules.length();\n        uint256[] memory balances = new uint256[](accounts.length);\n        for (uint256 j = 0; j < accounts.length; ++j) {\n            balances[j] = balanceOf(accounts[j]);\n        }\n        for (uint256 i = 0; i < modulesLength; ++i) {\n            IGovernanceModule(_modules.at(i)).notifyStakesChanged(accounts, balances);\n        }\n    }\n\n    function addModule(address module) external onlyOwner {\n        require(_modules.add(module), \"Module already registered\");\n        emit AddModule(module);\n    }\n\n    function removeModule(address module) external onlyOwner {\n        require(_modules.remove(module), \"Module was not registered\");\n        emit RemoveModule(module);\n    }\n\n    function _notifyFor(address account, uint256 balance) private {\n        bytes32[] memory cached = _modules._inner._values;\n        for (uint256 i = 0; i < cached.length; ++i) {\n            IGovernanceModule(address(uint256(cached[i]))).notifyStakeChanged(account, balance);\n        }\n    }\n}\n",
  "sourcePath": "/home/phillipe/governance-contract/contracts/GovernanceMothership.sol",
  "compiler": {
    "name": "solc",
    "version": "0.7.4+commit.3f05b770.Emscripten.clang"
  },
  "schemaVersion": "3.3.3",
  "updatedAt": "2021-02-21T20:45:06.337Z",
  "networkType": "ethereum",
  "devdoc": {
    "kind": "dev",
    "methods": {
      "owner()": {
        "details": "Returns the address of the current owner."
      },
      "renounceOwnership()": {
        "details": "Leaves the contract without owner. It will not be possible to call `onlyOwner` functions anymore. Can only be called by the current owner. NOTE: Renouncing ownership will leave the contract without an owner, thereby removing any functionality that is only available to the owner."
      },
      "transferOwnership(address)": {
        "details": "Transfers ownership of the contract to a new account (`newOwner`). Can only be called by the current owner."
      }
    },
    "version": 1
  },
  "userdoc": {
    "kind": "user",
    "methods": {},
    "version": 1
  }
}