{
  "contractName": "GovernanceMothership",
  "abi": [
    {
      "inputs": [
        {
          "internalType": "contract IERC20",
          "name": "_RIEToken",
          "type": "address"
        }
      ],
      "stateMutability": "nonpayable",
      "type": "constructor"
    },
    {
      "anonymous": false,
      "inputs": [
        {
          "indexed": true,
          "internalType": "address",
          "name": "module",
          "type": "address"
        }
      ],
      "name": "AddModule",
      "type": "event"
    },
    {
      "anonymous": false,
      "inputs": [
        {
          "indexed": true,
          "internalType": "address",
          "name": "previousOwner",
          "type": "address"
        },
        {
          "indexed": true,
          "internalType": "address",
          "name": "newOwner",
          "type": "address"
        }
      ],
      "name": "OwnershipTransferred",
      "type": "event"
    },
    {
      "anonymous": false,
      "inputs": [
        {
          "indexed": true,
          "internalType": "address",
          "name": "module",
          "type": "address"
        }
      ],
      "name": "RemoveModule",
      "type": "event"
    },
    {
      "anonymous": false,
      "inputs": [
        {
          "indexed": true,
          "internalType": "address",
          "name": "from",
          "type": "address"
        },
        {
          "indexed": true,
          "internalType": "address",
          "name": "to",
          "type": "address"
        },
        {
          "indexed": false,
          "internalType": "uint256",
          "name": "value",
          "type": "uint256"
        }
      ],
      "name": "Transfer",
      "type": "event"
    },
    {
      "inputs": [],
      "name": "RIEToken",
      "outputs": [
        {
          "internalType": "contract IERC20",
          "name": "",
          "type": "address"
        }
      ],
      "stateMutability": "view",
      "type": "function",
      "constant": true
    },
    {
      "inputs": [
        {
          "internalType": "address",
          "name": "account",
          "type": "address"
        }
      ],
      "name": "balanceOf",
      "outputs": [
        {
          "internalType": "uint256",
          "name": "",
          "type": "uint256"
        }
      ],
      "stateMutability": "view",
      "type": "function",
      "constant": true
    },
    {
      "inputs": [],
      "name": "owner",
      "outputs": [
        {
          "internalType": "address",
          "name": "",
          "type": "address"
        }
      ],
      "stateMutability": "view",
      "type": "function",
      "constant": true
    },
    {
      "inputs": [],
      "name": "renounceOwnership",
      "outputs": [],
      "stateMutability": "nonpayable",
      "type": "function"
    },
    {
      "inputs": [],
      "name": "totalSupply",
      "outputs": [
        {
          "internalType": "uint256",
          "name": "",
          "type": "uint256"
        }
      ],
      "stateMutability": "view",
      "type": "function",
      "constant": true
    },
    {
      "inputs": [
        {
          "internalType": "address",
          "name": "newOwner",
          "type": "address"
        }
      ],
      "name": "transferOwnership",
      "outputs": [],
      "stateMutability": "nonpayable",
      "type": "function"
    },
    {
      "inputs": [],
      "name": "name",
      "outputs": [
        {
          "internalType": "string",
          "name": "",
          "type": "string"
        }
      ],
      "stateMutability": "pure",
      "type": "function",
      "constant": true
    },
    {
      "inputs": [],
      "name": "symbol",
      "outputs": [
        {
          "internalType": "string",
          "name": "",
          "type": "string"
        }
      ],
      "stateMutability": "pure",
      "type": "function",
      "constant": true
    },
    {
      "inputs": [],
      "name": "decimals",
      "outputs": [
        {
          "internalType": "uint8",
          "name": "",
          "type": "uint8"
        }
      ],
      "stateMutability": "pure",
      "type": "function",
      "constant": true
    },
    {
      "inputs": [
        {
          "internalType": "uint256",
          "name": "amount",
          "type": "uint256"
        }
      ],
      "name": "stake",
      "outputs": [],
      "stateMutability": "nonpayable",
      "type": "function"
    },
    {
      "inputs": [
        {
          "internalType": "uint256",
          "name": "amount",
          "type": "uint256"
        }
      ],
      "name": "unstake",
      "outputs": [],
      "stateMutability": "nonpayable",
      "type": "function"
    },
    {
      "inputs": [],
      "name": "notify",
      "outputs": [],
      "stateMutability": "nonpayable",
      "type": "function"
    },
    {
      "inputs": [
        {
          "internalType": "address",
          "name": "account",
          "type": "address"
        }
      ],
      "name": "notifyFor",
      "outputs": [],
      "stateMutability": "nonpayable",
      "type": "function"
    },
    {
      "inputs": [
        {
          "internalType": "address[]",
          "name": "accounts",
          "type": "address[]"
        }
      ],
      "name": "batchNotifyFor",
      "outputs": [],
      "stateMutability": "nonpayable",
      "type": "function"
    },
    {
      "inputs": [
        {
          "internalType": "address",
          "name": "module",
          "type": "address"
        }
      ],
      "name": "addModule",
      "outputs": [],
      "stateMutability": "nonpayable",
      "type": "function"
    },
    {
      "inputs": [
        {
          "internalType": "address",
          "name": "module",
          "type": "address"
        }
      ],
      "name": "removeModule",
      "outputs": [],
      "stateMutability": "nonpayable",
      "type": "function"
    }
  ],
  "bytecode": "0x60a060405234801561001057600080fd5b50604051611bbc380380611bbc8339818101604052602081101561003357600080fd5b8101908080519060200190929190505050600061005461012f60201b60201c565b9050806000806101000a81548173ffffffffffffffffffffffffffffffffffffffff021916908373ffffffffffffffffffffffffffffffffffffffff1602179055508073ffffffffffffffffffffffffffffffffffffffff16600073ffffffffffffffffffffffffffffffffffffffff167f8be0079c531659141344cd1fd0a4f28419497f9722a3daafe3b4186f6b6457e060405160405180910390a3508073ffffffffffffffffffffffffffffffffffffffff1660808173ffffffffffffffffffffffffffffffffffffffff1660601b8152505050610137565b600033905090565b60805160601c611a5e61015e600039806107c652806109055280610f465250611a5e6000f3fe608060405234801561001057600080fd5b50600436106101005760003560e01c806370a082311161009757806395d89b411161006657806395d89b4114610409578063a06324611461048c578063a694fc3a146104d0578063f2fde38b146104fe57610100565b806370a0823114610369578063715018a6146103c1578063899f5898146103cb5780638da5cb5b146103d557610100565b80632e17de78116100d35780632e17de781461022e578063313ce5671461025c578063482baacf1461027d5780635cf1cd2b146102b157610100565b806306fdde0314610105578063132b4fc81461018857806318160ddd146101cc5780631ed86f19146101ea575b600080fd5b61010d610542565b6040518080602001828103825283818151815260200191508051906020019080838360005b8381101561014d578082015181840152602081019050610132565b50505050905090810190601f16801561017a5780820380516001836020036101000a031916815260200191505b509250505060405180910390f35b6101ca6004803603602081101561019e57600080fd5b81019080803573ffffffffffffffffffffffffffffffffffffffff16906020019092919050505061057f565b005b6101d4610594565b6040518082815260200191505060405180910390f35b61022c6004803603602081101561020057600080fd5b81019080803573ffffffffffffffffffffffffffffffffffffffff16906020019092919050505061059e565b005b61025a6004803603602081101561024457600080fd5b8101908080359060200190929190505050610732565b005b6102646108fa565b604051808260ff16815260200191505060405180910390f35b610285610903565b604051808273ffffffffffffffffffffffffffffffffffffffff16815260200191505060405180910390f35b610367600480360360208110156102c757600080fd5b81019080803590602001906401000000008111156102e457600080fd5b8201836020820111156102f657600080fd5b8035906020019184602083028401116401000000008311171561031857600080fd5b919080806020026020016040519081016040528093929190818152602001838360200280828437600081840152601f19601f820116905080830192505050505050509192919290505050610927565b005b6103ab6004803603602081101561037f57600080fd5b81019080803573ffffffffffffffffffffffffffffffffffffffff169060200190929190505050610af1565b6040518082815260200191505060405180910390f35b6103c9610b3a565b005b6103d3610cc0565b005b6103dd610cd4565b604051808273ffffffffffffffffffffffffffffffffffffffff16815260200191505060405180910390f35b610411610cfd565b6040518080602001828103825283818151815260200191508051906020019080838360005b83811015610451578082015181840152602081019050610436565b50505050905090810190601f16801561047e5780820380516001836020036101000a031916815260200191505b509250505060405180910390f35b6104ce600480360360208110156104a257600080fd5b81019080803573ffffffffffffffffffffffffffffffffffffffff169060200190929190505050610d3a565b005b6104fc600480360360208110156104e657600080fd5b8101908080359060200190929190505050610ece565b005b6105406004803603602081101561051457600080fd5b81019080803573ffffffffffffffffffffffffffffffffffffffff1690602001909291905050506110b4565b005b60606040518060400160405280601281526020017f52494520546f6b656e20285374616b6564290000000000000000000000000000815250905090565b6105918161058c83610af1565b6112bf565b50565b6000600154905090565b6105a66113d6565b73ffffffffffffffffffffffffffffffffffffffff1660008054906101000a900473ffffffffffffffffffffffffffffffffffffffff1673ffffffffffffffffffffffffffffffffffffffff1614610666576040517f08c379a00000000000000000000000000000000000000000000000000000000081526004018080602001828103825260208152602001807f4f776e61626c653a2063616c6c6572206973206e6f7420746865206f776e657281525060200191505060405180910390fd5b61067a8160036113de90919063ffffffff16565b6106ec576040517f08c379a00000000000000000000000000000000000000000000000000000000081526004018080602001828103825260198152602001807f4d6f64756c6520616c726561647920726567697374657265640000000000000081525060200191505060405180910390fd5b8073ffffffffffffffffffffffffffffffffffffffff167f0e8ab0265c955b9584b70d255e316c63717f1fb52ba0acfff63bca74ca2e8fad60405160405180910390a250565b600081116107a8576040517f08c379a000000000000000000000000000000000000000000000000000000000815260040180806020018281038252601c8152602001807f456d70747920756e7374616b65206973206e6f7420616c6c6f7765640000000081525060200191505060405180910390fd5b6107b2338261140e565b6107c4336107bf33610af1565b6112bf565b7f000000000000000000000000000000000000000000000000000000000000000073ffffffffffffffffffffffffffffffffffffffff1663a9059cbb33836040518363ffffffff1660e01b8152600401808373ffffffffffffffffffffffffffffffffffffffff16815260200182815260200192505050602060405180830381600087803b15801561085557600080fd5b505af1158015610869573d6000803e3d6000fd5b505050506040513d602081101561087f57600080fd5b810190808051906020019092919050505050600073ffffffffffffffffffffffffffffffffffffffff163373ffffffffffffffffffffffffffffffffffffffff167fddf252ad1be2c89b69c2b068fc378daa952ba7f163c4a11628f55a4df523b3ef836040518082815260200191505060405180910390a350565b60006012905090565b7f000000000000000000000000000000000000000000000000000000000000000081565b600061093360036114f9565b90506060825167ffffffffffffffff8111801561094f57600080fd5b5060405190808252806020026020018201604052801561097e5781602001602082028036833780820191505090505b50905060005b83518110156109cc576109a984828151811061099c57fe5b6020026020010151610af1565b8282815181106109b557fe5b602002602001018181525050806001019050610984565b5060005b82811015610aeb576109ec81600361150e90919063ffffffff16565b73ffffffffffffffffffffffffffffffffffffffff1663ad33334885846040518363ffffffff1660e01b8152600401808060200180602001838103835285818151815260200191508051906020019060200280838360005b83811015610a5f578082015181840152602081019050610a44565b50505050905001838103825284818151815260200191508051906020019060200280838360005b83811015610aa1578082015181840152602081019050610a86565b50505050905001945050505050600060405180830381600087803b158015610ac857600080fd5b505af1158015610adc573d6000803e3d6000fd5b505050508060010190506109d0565b50505050565b6000600260008373ffffffffffffffffffffffffffffffffffffffff1673ffffffffffffffffffffffffffffffffffffffff168152602001908152602001600020549050919050565b610b426113d6565b73ffffffffffffffffffffffffffffffffffffffff1660008054906101000a900473ffffffffffffffffffffffffffffffffffffffff1673ffffffffffffffffffffffffffffffffffffffff1614610c02576040517f08c379a00000000000000000000000000000000000000000000000000000000081526004018080602001828103825260208152602001807f4f776e61626c653a2063616c6c6572206973206e6f7420746865206f776e657281525060200191505060405180910390fd5b600073ffffffffffffffffffffffffffffffffffffffff1660008054906101000a900473ffffffffffffffffffffffffffffffffffffffff1673ffffffffffffffffffffffffffffffffffffffff167f8be0079c531659141344cd1fd0a4f28419497f9722a3daafe3b4186f6b6457e060405160405180910390a360008060006101000a81548173ffffffffffffffffffffffffffffffffffffffff021916908373ffffffffffffffffffffffffffffffffffffffff160217905550565b610cd233610ccd33610af1565b6112bf565b565b60008060009054906101000a900473ffffffffffffffffffffffffffffffffffffffff16905090565b60606040518060400160405280600581526020017f7374524945000000000000000000000000000000000000000000000000000000815250905090565b610d426113d6565b73ffffffffffffffffffffffffffffffffffffffff1660008054906101000a900473ffffffffffffffffffffffffffffffffffffffff1673ffffffffffffffffffffffffffffffffffffffff1614610e02576040517f08c379a00000000000000000000000000000000000000000000000000000000081526004018080602001828103825260208152602001807f4f776e61626c653a2063616c6c6572206973206e6f7420746865206f776e657281525060200191505060405180910390fd5b610e1681600361152890919063ffffffff16565b610e88576040517f08c379a00000000000000000000000000000000000000000000000000000000081526004018080602001828103825260198152602001807f4d6f64756c6520776173206e6f7420726567697374657265640000000000000081525060200191505060405180910390fd5b8073ffffffffffffffffffffffffffffffffffffffff167f75f4e5771d2cdd015405ae76feb37f5792736e71ff18f8a9dd690772a48111a360405160405180910390a250565b60008111610f44576040517f08c379a000000000000000000000000000000000000000000000000000000000815260040180806020018281038252601a8152602001807f456d707479207374616b65206973206e6f7420616c6c6f77656400000000000081525060200191505060405180910390fd5b7f000000000000000000000000000000000000000000000000000000000000000073ffffffffffffffffffffffffffffffffffffffff166323b872dd3330846040518463ffffffff1660e01b8152600401808473ffffffffffffffffffffffffffffffffffffffff1681526020018373ffffffffffffffffffffffffffffffffffffffff1681526020018281526020019350505050602060405180830381600087803b158015610ff357600080fd5b505af1158015611007573d6000803e3d6000fd5b505050506040513d602081101561101d57600080fd5b8101908080519060200190929190505050506110393382611558565b61104b3361104633610af1565b6112bf565b3373ffffffffffffffffffffffffffffffffffffffff16600073ffffffffffffffffffffffffffffffffffffffff167fddf252ad1be2c89b69c2b068fc378daa952ba7f163c4a11628f55a4df523b3ef836040518082815260200191505060405180910390a350565b6110bc6113d6565b73ffffffffffffffffffffffffffffffffffffffff1660008054906101000a900473ffffffffffffffffffffffffffffffffffffffff1673ffffffffffffffffffffffffffffffffffffffff161461117c576040517f08c379a00000000000000000000000000000000000000000000000000000000081526004018080602001828103825260208152602001807f4f776e61626c653a2063616c6c6572206973206e6f7420746865206f776e657281525060200191505060405180910390fd5b600073ffffffffffffffffffffffffffffffffffffffff168173ffffffffffffffffffffffffffffffffffffffff161415611202576040517f08c379a0000000000000000000000000000000000000000000000000000000008152600401808060200182810382526026815260200180611a036026913960400191505060405180910390fd5b8073ffffffffffffffffffffffffffffffffffffffff1660008054906101000a900473ffffffffffffffffffffffffffffffffffffffff1673ffffffffffffffffffffffffffffffffffffffff167f8be0079c531659141344cd1fd0a4f28419497f9722a3daafe3b4186f6b6457e060405160405180910390a3806000806101000a81548173ffffffffffffffffffffffffffffffffffffffff021916908373ffffffffffffffffffffffffffffffffffffffff16021790555050565b6060600360000160000180548060200260200160405190810160405280929190818152602001828054801561131357602002820191906000526020600020905b8154815260200190600101908083116112ff575b5050505050905060005b81518110156113d05781818151811061133257fe5b602002602001015160001c73ffffffffffffffffffffffffffffffffffffffff166327a2743385856040518363ffffffff1660e01b8152600401808373ffffffffffffffffffffffffffffffffffffffff16815260200182815260200192505050600060405180830381600087803b1580156113ad57600080fd5b505af11580156113c1573d6000803e3d6000fd5b5050505080600101905061131d565b50505050565b600033905090565b6000611406836000018373ffffffffffffffffffffffffffffffffffffffff1660001b61160c565b905092915050565b611497816040518060400160405280601b81526020017f4275726e20616d6f756e7420657863656564732062616c616e63650000000000815250600260008673ffffffffffffffffffffffffffffffffffffffff1673ffffffffffffffffffffffffffffffffffffffff1681526020019081526020016000205461167c9092919063ffffffff16565b600260008473ffffffffffffffffffffffffffffffffffffffff1673ffffffffffffffffffffffffffffffffffffffff168152602001908152602001600020819055506114ef8160015461173690919063ffffffff16565b6001819055505050565b6000611507826000016117b9565b9050919050565b600061151d83600001836117ca565b60001c905092915050565b6000611550836000018373ffffffffffffffffffffffffffffffffffffffff1660001b61184d565b905092915050565b61156d8160015461193590919063ffffffff16565b6001819055506115c581600260008573ffffffffffffffffffffffffffffffffffffffff1673ffffffffffffffffffffffffffffffffffffffff1681526020019081526020016000205461193590919063ffffffff16565b600260008473ffffffffffffffffffffffffffffffffffffffff1673ffffffffffffffffffffffffffffffffffffffff168152602001908152602001600020819055505050565b600061161883836119bd565b611671578260000182908060018154018082558091505060019003906000526020600020016000909190919091505582600001805490508360010160008481526020019081526020016000208190555060019050611676565b600090505b92915050565b6000838311158290611729576040517f08c379a00000000000000000000000000000000000000000000000000000000081526004018080602001828103825283818151815260200191508051906020019080838360005b838110156116ee5780820151818401526020810190506116d3565b50505050905090810190601f16801561171b5780820380516001836020036101000a031916815260200191505b509250505060405180910390fd5b5082840390509392505050565b6000828211156117ae576040517f08c379a000000000000000000000000000000000000000000000000000000000815260040180806020018281038252601e8152602001807f536166654d6174683a207375627472616374696f6e206f766572666c6f77000081525060200191505060405180910390fd5b818303905092915050565b600081600001805490509050919050565b60008183600001805490501161182b576040517f08c379a00000000000000000000000000000000000000000000000000000000081526004018080602001828103825260228152602001806119e16022913960400191505060405180910390fd5b82600001828154811061183a57fe5b9060005260206000200154905092915050565b60008083600101600084815260200190815260200160002054905060008114611929576000600182039050600060018660000180549050039050600086600001828154811061189857fe5b90600052602060002001549050808760000184815481106118b557fe5b90600052602060002001819055506001830187600101600083815260200190815260200160002081905550866000018054806118ed57fe5b6001900381819060005260206000200160009055905586600101600087815260200190815260200160002060009055600194505050505061192f565b60009150505b92915050565b6000808284019050838110156119b3576040517f08c379a000000000000000000000000000000000000000000000000000000000815260040180806020018281038252601b8152602001807f536166654d6174683a206164646974696f6e206f766572666c6f77000000000081525060200191505060405180910390fd5b8091505092915050565b60008083600101600084815260200190815260200160002054141590509291505056fe456e756d657261626c655365743a20696e646578206f7574206f6620626f756e64734f776e61626c653a206e6577206f776e657220697320746865207a65726f2061646472657373a2646970667358221220f7559e11ef64d09d2cc48e93d61078160deb6b0d02920786c7ee839aabb35ba764736f6c63430007040033",
  "immutableReferences": {
    "35": [
      {
        "length": 32,
        "start": 1990
      },
      {
        "length": 32,
        "start": 2309
      },
      {
        "length": 32,
        "start": 3910
      }
    ]
  },
  "source": "// SPDX-License-Identifier: MIT\n\npragma solidity >=0.6.0 <0.8.0;\n\nimport \"./access/Ownable.sol\";\nimport \"@openzeppelin/contracts/math/SafeMath.sol\";\nimport \"@openzeppelin/contracts/token/ERC20/IERC20.sol\";\nimport \"@openzeppelin/contracts/utils/EnumerableSet.sol\";\nimport \"./interfaces/IGovernanceModule.sol\";\nimport \"./utils/BalanceAccounting.sol\";\n\n\ncontract GovernanceMothership is Ownable, BalanceAccounting {\n    using SafeMath for uint256;\n    using EnumerableSet for EnumerableSet.AddressSet;\n\n    event Transfer(address indexed from, address indexed to, uint256 value);\n    event AddModule(address indexed module);\n    event RemoveModule(address indexed module);\n\n    IERC20 public immutable RIEToken;\n\n    EnumerableSet.AddressSet private _modules;\n\n    constructor(IERC20 _RIEToken) {\n        RIEToken = _RIEToken;\n    }\n\n    function name() external pure returns(string memory) {\n        return \"RIE Token (Staked)\";\n    }\n\n    function symbol() external pure returns(string memory) {\n        return \"stRIE\";\n    }\n\n    function decimals() external pure returns(uint8) {\n        return 18;\n    }\n\n    function stake(uint256 amount) external {\n        require(amount > 0, \"Empty stake is not allowed\");\n\n        RIEToken.transferFrom(msg.sender, address(this), amount);\n        _mint(msg.sender, amount);\n        _notifyFor(msg.sender, balanceOf(msg.sender));\n        emit Transfer(address(0), msg.sender, amount);\n    }\n\n    function unstake(uint256 amount) external {\n        require(amount > 0, \"Empty unstake is not allowed\");\n\n        _burn(msg.sender, amount);\n        _notifyFor(msg.sender, balanceOf(msg.sender));\n        RIEToken.transfer(msg.sender, amount);\n        emit Transfer(msg.sender, address(0), amount);\n    }\n\n    function notify() external {\n        _notifyFor(msg.sender, balanceOf(msg.sender));\n    }\n\n    function notifyFor(address account) external {\n        _notifyFor(account, balanceOf(account));\n    }\n\n    function batchNotifyFor(address[] memory accounts) external {\n        uint256 modulesLength = _modules.length();\n        uint256[] memory balances = new uint256[](accounts.length);\n        for (uint256 j = 0; j < accounts.length; ++j) {\n            balances[j] = balanceOf(accounts[j]);\n        }\n        for (uint256 i = 0; i < modulesLength; ++i) {\n            IGovernanceModule(_modules.at(i)).notifyStakesChanged(accounts, balances);\n        }\n    }\n\n    function addModule(address module) external onlyOwner {\n        require(_modules.add(module), \"Module already registered\");\n        emit AddModule(module);\n    }\n\n    function removeModule(address module) external onlyOwner {\n        require(_modules.remove(module), \"Module was not registered\");\n        emit RemoveModule(module);\n    }\n\n    function _notifyFor(address account, uint256 balance) private {\n        bytes32[] memory cached = _modules._inner._values;\n        for (uint256 i = 0; i < cached.length; ++i) {\n            IGovernanceModule(address(uint256(cached[i]))).notifyStakeChanged(account, balance);\n        }\n    }\n}\n",
  "sourcePath": "/home/phillipe/governance-contract/contracts/GovernanceMothership.sol",
  "compiler": {
    "name": "solc",
    "version": "0.7.4+commit.3f05b770.Emscripten.clang"
  },
  "schemaVersion": "3.3.3",
  "updatedAt": "2021-02-21T19:33:47.297Z",
  "networkType": "ethereum",
  "devdoc": {
    "kind": "dev",
    "methods": {
      "owner()": {
        "details": "Returns the address of the current owner."
      },
      "renounceOwnership()": {
        "details": "Leaves the contract without owner. It will not be possible to call `onlyOwner` functions anymore. Can only be called by the current owner. NOTE: Renouncing ownership will leave the contract without an owner, thereby removing any functionality that is only available to the owner."
      },
      "transferOwnership(address)": {
        "details": "Transfers ownership of the contract to a new account (`newOwner`). Can only be called by the current owner."
      }
    },
    "version": 1
  },
  "userdoc": {
    "kind": "user",
    "methods": {},
    "version": 1
  }
}