{
  "contractName": "GovernanceRewards",
  "abi": [
    {
      "inputs": [
        {
          "internalType": "contract IERC20",
          "name": "_gift",
          "type": "address"
        },
        {
          "internalType": "address",
          "name": "_mothership",
          "type": "address"
        }
      ],
      "stateMutability": "nonpayable",
      "type": "constructor"
    },
    {
      "anonymous": false,
      "inputs": [
        {
          "indexed": true,
          "internalType": "address",
          "name": "previousOwner",
          "type": "address"
        },
        {
          "indexed": true,
          "internalType": "address",
          "name": "newOwner",
          "type": "address"
        }
      ],
      "name": "OwnershipTransferred",
      "type": "event"
    },
    {
      "anonymous": false,
      "inputs": [
        {
          "indexed": false,
          "internalType": "uint256",
          "name": "reward",
          "type": "uint256"
        }
      ],
      "name": "RewardAdded",
      "type": "event"
    },
    {
      "anonymous": false,
      "inputs": [
        {
          "indexed": true,
          "internalType": "address",
          "name": "user",
          "type": "address"
        },
        {
          "indexed": false,
          "internalType": "uint256",
          "name": "reward",
          "type": "uint256"
        }
      ],
      "name": "RewardPaid",
      "type": "event"
    },
    {
      "inputs": [],
      "name": "DURATION",
      "outputs": [
        {
          "internalType": "uint256",
          "name": "",
          "type": "uint256"
        }
      ],
      "stateMutability": "view",
      "type": "function"
    },
    {
      "inputs": [
        {
          "internalType": "address",
          "name": "account",
          "type": "address"
        }
      ],
      "name": "balanceOf",
      "outputs": [
        {
          "internalType": "uint256",
          "name": "",
          "type": "uint256"
        }
      ],
      "stateMutability": "view",
      "type": "function"
    },
    {
      "inputs": [
        {
          "internalType": "address",
          "name": "account",
          "type": "address"
        }
      ],
      "name": "earned",
      "outputs": [
        {
          "internalType": "uint256",
          "name": "",
          "type": "uint256"
        }
      ],
      "stateMutability": "view",
      "type": "function"
    },
    {
      "inputs": [],
      "name": "getReward",
      "outputs": [],
      "stateMutability": "nonpayable",
      "type": "function"
    },
    {
      "inputs": [],
      "name": "gift",
      "outputs": [
        {
          "internalType": "contract IERC20",
          "name": "",
          "type": "address"
        }
      ],
      "stateMutability": "view",
      "type": "function"
    },
    {
      "inputs": [],
      "name": "lastTimeRewardApplicable",
      "outputs": [
        {
          "internalType": "uint256",
          "name": "",
          "type": "uint256"
        }
      ],
      "stateMutability": "view",
      "type": "function"
    },
    {
      "inputs": [],
      "name": "lastUpdateTime",
      "outputs": [
        {
          "internalType": "uint256",
          "name": "",
          "type": "uint256"
        }
      ],
      "stateMutability": "view",
      "type": "function"
    },
    {
      "inputs": [],
      "name": "mothership",
      "outputs": [
        {
          "internalType": "address",
          "name": "",
          "type": "address"
        }
      ],
      "stateMutability": "view",
      "type": "function"
    },
    {
      "inputs": [
        {
          "internalType": "uint256",
          "name": "reward",
          "type": "uint256"
        }
      ],
      "name": "notifyRewardAmount",
      "outputs": [],
      "stateMutability": "nonpayable",
      "type": "function"
    },
    {
      "inputs": [
        {
          "internalType": "address",
          "name": "account",
          "type": "address"
        },
        {
          "internalType": "uint256",
          "name": "newBalance",
          "type": "uint256"
        }
      ],
      "name": "notifyStakeChanged",
      "outputs": [],
      "stateMutability": "nonpayable",
      "type": "function"
    },
    {
      "inputs": [
        {
          "internalType": "address[]",
          "name": "accounts",
          "type": "address[]"
        },
        {
          "internalType": "uint256[]",
          "name": "newBalances",
          "type": "uint256[]"
        }
      ],
      "name": "notifyStakesChanged",
      "outputs": [],
      "stateMutability": "nonpayable",
      "type": "function"
    },
    {
      "inputs": [],
      "name": "owner",
      "outputs": [
        {
          "internalType": "address",
          "name": "",
          "type": "address"
        }
      ],
      "stateMutability": "view",
      "type": "function"
    },
    {
      "inputs": [],
      "name": "periodFinish",
      "outputs": [
        {
          "internalType": "uint256",
          "name": "",
          "type": "uint256"
        }
      ],
      "stateMutability": "view",
      "type": "function"
    },
    {
      "inputs": [],
      "name": "renounceOwnership",
      "outputs": [],
      "stateMutability": "nonpayable",
      "type": "function"
    },
    {
      "inputs": [],
      "name": "rewardDistribution",
      "outputs": [
        {
          "internalType": "address",
          "name": "",
          "type": "address"
        }
      ],
      "stateMutability": "view",
      "type": "function"
    },
    {
      "inputs": [],
      "name": "rewardPerToken",
      "outputs": [
        {
          "internalType": "uint256",
          "name": "",
          "type": "uint256"
        }
      ],
      "stateMutability": "view",
      "type": "function"
    },
    {
      "inputs": [],
      "name": "rewardPerTokenStored",
      "outputs": [
        {
          "internalType": "uint256",
          "name": "",
          "type": "uint256"
        }
      ],
      "stateMutability": "view",
      "type": "function"
    },
    {
      "inputs": [],
      "name": "rewardRate",
      "outputs": [
        {
          "internalType": "uint256",
          "name": "",
          "type": "uint256"
        }
      ],
      "stateMutability": "view",
      "type": "function"
    },
    {
      "inputs": [
        {
          "internalType": "address",
          "name": "",
          "type": "address"
        }
      ],
      "name": "rewards",
      "outputs": [
        {
          "internalType": "uint256",
          "name": "",
          "type": "uint256"
        }
      ],
      "stateMutability": "view",
      "type": "function"
    },
    {
      "inputs": [
        {
          "internalType": "address",
          "name": "_rewardDistribution",
          "type": "address"
        }
      ],
      "name": "setRewardDistribution",
      "outputs": [],
      "stateMutability": "nonpayable",
      "type": "function"
    },
    {
      "inputs": [],
      "name": "totalSupply",
      "outputs": [
        {
          "internalType": "uint256",
          "name": "",
          "type": "uint256"
        }
      ],
      "stateMutability": "view",
      "type": "function"
    },
    {
      "inputs": [
        {
          "internalType": "address",
          "name": "newOwner",
          "type": "address"
        }
      ],
      "name": "transferOwnership",
      "outputs": [],
      "stateMutability": "nonpayable",
      "type": "function"
    },
    {
      "inputs": [
        {
          "internalType": "address",
          "name": "",
          "type": "address"
        }
      ],
      "name": "userRewardPerTokenPaid",
      "outputs": [
        {
          "internalType": "uint256",
          "name": "",
          "type": "uint256"
        }
      ],
      "stateMutability": "view",
      "type": "function"
    },
    {
      "inputs": [
        {
          "internalType": "contract IERC20",
          "name": "token",
          "type": "address"
        },
        {
          "internalType": "uint256",
          "name": "amount",
          "type": "uint256"
        }
      ],
      "name": "rescueFunds",
      "outputs": [],
      "stateMutability": "nonpayable",
      "type": "function"
    }
  ],
  "bytecode": "0x60c060405234801561001057600080fd5b50604051611b57380380611b578339818101604052604081101561003357600080fd5b5080516020909101516001600160601b0319606082901b166080528160006100596100bb565b600080546001600160a01b0319166001600160a01b0383169081178255604051929350917f8be0079c531659141344cd1fd0a4f28419497f9722a3daafe3b4186f6b6457e0908290a35060601b6001600160601b03191660a052506100bf9050565b3390565b60805160601c60a05160601c611a566101016000398061065d52806108915280610ae65280610d855250806106975280610ba85280610ebe5250611a566000f3fe608060405234801561001057600080fd5b50600436106101975760003560e01c8063715018a6116100e3578063ad3333481161008c578063df136d6511610066578063df136d6514610489578063ebe2b12b14610491578063f2fde38b1461049957610197565b8063ad333348146103b7578063c8f33c9114610479578063cd3daf9d1461048157610197565b806380faa57d116100bd57806380faa57d146103745780638b8763471461037c5780638da5cb5b146103af57610197565b8063715018a61461032b57806378e3214f146103335780637b0a47ee1461036c57610197565b806324b04905116101455780633d18b9121161011f5780633d18b912146102e85780634187b7d6146102f057806370a08231146102f857610197565b806324b049051461028a57806327a27433146102925780633c6b16ab146102cb57610197565b8063101114cf11610176578063101114cf1461024957806318160ddd1461027a5780631be052891461028257610197565b80628cc2621461019c5780630700037d146101e15780630d68b76114610214575b600080fd5b6101cf600480360360208110156101b257600080fd5b503573ffffffffffffffffffffffffffffffffffffffff166104cc565b60408051918252519081900360200190f35b6101cf600480360360208110156101f757600080fd5b503573ffffffffffffffffffffffffffffffffffffffff16610547565b6102476004803603602081101561022a57600080fd5b503573ffffffffffffffffffffffffffffffffffffffff16610559565b005b610251610631565b6040805173ffffffffffffffffffffffffffffffffffffffff9092168252519081900360200190f35b6101cf61064d565b6101cf610654565b61025161065b565b610247600480360360408110156102a857600080fd5b5073ffffffffffffffffffffffffffffffffffffffff813516906020013561067f565b610247600480360360208110156102e157600080fd5b5035610731565b610247610a0f565b610251610ba6565b6101cf6004803603602081101561030e57600080fd5b503573ffffffffffffffffffffffffffffffffffffffff16610bca565b610247610bf2565b6102476004803603604081101561034957600080fd5b5073ffffffffffffffffffffffffffffffffffffffff8135169060200135610cf2565b6101cf610e5f565b6101cf610e65565b6101cf6004803603602081101561039257600080fd5b503573ffffffffffffffffffffffffffffffffffffffff16610e78565b610251610e8a565b610247600480360360408110156103cd57600080fd5b8101906020810181356401000000008111156103e857600080fd5b8201836020820111156103fa57600080fd5b8035906020019184602083028401116401000000008311171561041c57600080fd5b91939092909160208101903564010000000081111561043a57600080fd5b82018360208201111561044c57600080fd5b8035906020019184602083028401116401000000008311171561046e57600080fd5b509092509050610ea6565b6101cf611016565b6101cf61101c565b6101cf61106a565b6101cf611070565b610247600480360360208110156104af57600080fd5b503573ffffffffffffffffffffffffffffffffffffffff16611076565b73ffffffffffffffffffffffffffffffffffffffff81166000908152600960209081526040808320546008909252822054610541919061053b90670de0b6b3a764000090610535906105269061052061101c565b90611200565b61052f88610bca565b90611277565b906112f1565b90611372565b92915050565b60096020526000908152604090205481565b6105616113e6565b60005473ffffffffffffffffffffffffffffffffffffffff9081169116146105ea57604080517f08c379a000000000000000000000000000000000000000000000000000000000815260206004820181905260248201527f4f776e61626c653a2063616c6c6572206973206e6f7420746865206f776e6572604482015290519081900360640190fd5b600380547fffffffffffffffffffffffff00000000000000000000000000000000000000001673ffffffffffffffffffffffffffffffffffffffff92909216919091179055565b60035473ffffffffffffffffffffffffffffffffffffffff1681565b6001545b90565b62093a8081565b7f000000000000000000000000000000000000000000000000000000000000000081565b3373ffffffffffffffffffffffffffffffffffffffff7f0000000000000000000000000000000000000000000000000000000000000000161461072357604080517f08c379a000000000000000000000000000000000000000000000000000000000815260206004820152601f60248201527f416363657373207265737472696374656420746f206d6f746865727368697000604482015290519081900360640190fd5b61072d82826113ea565b5050565b60035473ffffffffffffffffffffffffffffffffffffffff1633146107b757604080517f08c379a000000000000000000000000000000000000000000000000000000000815260206004820152600d60248201527f4163636573732064656e69656400000000000000000000000000000000000000604482015290519081900360640190fd5b60006107c161101c565b6007556107cc610e65565b60065573ffffffffffffffffffffffffffffffffffffffff81161561082d576107f4816104cc565b73ffffffffffffffffffffffffffffffffffffffff82166000908152600960209081526040808320939093556007546008909152919020555b600454421061084b576108438262093a806112f1565b60055561088d565b60045460009061085b9042611200565b905060006108746005548361127790919063ffffffff16565b905061088762093a806105358684611372565b60055550505b60007f000000000000000000000000000000000000000000000000000000000000000073ffffffffffffffffffffffffffffffffffffffff166370a08231306040518263ffffffff1660e01b8152600401808273ffffffffffffffffffffffffffffffffffffffff16815260200191505060206040518083038186803b15801561091657600080fd5b505afa15801561092a573d6000803e3d6000fd5b505050506040513d602081101561094057600080fd5b505190506109518162093a806112f1565b60055411156109c157604080517f08c379a000000000000000000000000000000000000000000000000000000000815260206004820152601160248201527f52657761726420697320746f6f20626967000000000000000000000000000000604482015290519081900360640190fd5b4260068190556109d49062093a80611372565b6004556040805184815290517fde88a922e0d3b88b24e9623efeb464919c6bf9f66857a65e2bfcf2ce87a9433d9181900360200190a1505050565b33610a1861101c565b600755610a23610e65565b60065573ffffffffffffffffffffffffffffffffffffffff811615610a8457610a4b816104cc565b73ffffffffffffffffffffffffffffffffffffffff82166000908152600960209081526040808320939093556007546008909152919020555b33600090815260096020526040902054801561072d5733600081815260096020908152604080832083905580517fa9059cbb000000000000000000000000000000000000000000000000000000008152600481019490945260248401859052517f000000000000000000000000000000000000000000000000000000000000000073ffffffffffffffffffffffffffffffffffffffff169363a9059cbb9360448083019493928390030190829087803b158015610b4057600080fd5b505af1158015610b54573d6000803e3d6000fd5b505050506040513d6020811015610b6a57600080fd5b505060408051828152905133917fe2403640ba68fed3a2f88b7557551d1993f84b99bb10ff833f0cf8db0c5e0486919081900360200190a25050565b7f000000000000000000000000000000000000000000000000000000000000000081565b73ffffffffffffffffffffffffffffffffffffffff1660009081526002602052604090205490565b610bfa6113e6565b60005473ffffffffffffffffffffffffffffffffffffffff908116911614610c8357604080517f08c379a000000000000000000000000000000000000000000000000000000000815260206004820181905260248201527f4f776e61626c653a2063616c6c6572206973206e6f7420746865206f776e6572604482015290519081900360640190fd5b6000805460405173ffffffffffffffffffffffffffffffffffffffff909116907f8be0079c531659141344cd1fd0a4f28419497f9722a3daafe3b4186f6b6457e0908390a3600080547fffffffffffffffffffffffff0000000000000000000000000000000000000000169055565b610cfa6113e6565b60005473ffffffffffffffffffffffffffffffffffffffff908116911614610d8357604080517f08c379a000000000000000000000000000000000000000000000000000000000815260206004820181905260248201527f4f776e61626c653a2063616c6c6572206973206e6f7420746865206f776e6572604482015290519081900360640190fd5b7f000000000000000000000000000000000000000000000000000000000000000073ffffffffffffffffffffffffffffffffffffffff168273ffffffffffffffffffffffffffffffffffffffff161415610e3e57604080517f08c379a000000000000000000000000000000000000000000000000000000000815260206004820152601160248201527f43616e2774207265736375652067696674000000000000000000000000000000604482015290519081900360640190fd5b61072d73ffffffffffffffffffffffffffffffffffffffff8316338361146f565b60055481565b6000610e73426004546114f2565b905090565b60086020526000908152604090205481565b60005473ffffffffffffffffffffffffffffffffffffffff1690565b3373ffffffffffffffffffffffffffffffffffffffff7f00000000000000000000000000000000000000000000000000000000000000001614610f4a57604080517f08c379a000000000000000000000000000000000000000000000000000000000815260206004820152601f60248201527f416363657373207265737472696374656420746f206d6f746865727368697000604482015290519081900360640190fd5b828114610fb857604080517f08c379a000000000000000000000000000000000000000000000000000000000815260206004820152601d60248201527f417272617973206c656e6774682073686f756c6420626520657175616c000000604482015290519081900360640190fd5b60005b8381101561100f57611007858583818110610fd257fe5b9050602002013573ffffffffffffffffffffffffffffffffffffffff16848484818110610ffb57fe5b905060200201356113ea565b600101610fbb565b5050505050565b60065481565b600061102661064d565b6110335750600754610651565b610e7361106161104161064d565b610535670de0b6b3a764000061052f60055461052f600654610520610e65565b60075490611372565b60075481565b60045481565b61107e6113e6565b60005473ffffffffffffffffffffffffffffffffffffffff90811691161461110757604080517f08c379a000000000000000000000000000000000000000000000000000000000815260206004820181905260248201527f4f776e61626c653a2063616c6c6572206973206e6f7420746865206f776e6572604482015290519081900360640190fd5b73ffffffffffffffffffffffffffffffffffffffff8116611173576040517f08c379a000000000000000000000000000000000000000000000000000000000815260040180806020018281038252602681526020018061198a6026913960400191505060405180910390fd5b6000805460405173ffffffffffffffffffffffffffffffffffffffff808516939216917f8be0079c531659141344cd1fd0a4f28419497f9722a3daafe3b4186f6b6457e091a3600080547fffffffffffffffffffffffff00000000000000000000000000000000000000001673ffffffffffffffffffffffffffffffffffffffff92909216919091179055565b60008282111561127157604080517f08c379a000000000000000000000000000000000000000000000000000000000815260206004820152601e60248201527f536166654d6174683a207375627472616374696f6e206f766572666c6f770000604482015290519081900360640190fd5b50900390565b60008261128657506000610541565b8282028284828161129357fe5b04146112ea576040517f08c379a00000000000000000000000000000000000000000000000000000000081526004018080602001828103825260218152602001806119d66021913960400191505060405180910390fd5b9392505050565b600080821161136157604080517f08c379a000000000000000000000000000000000000000000000000000000000815260206004820152601a60248201527f536166654d6174683a206469766973696f6e206279207a65726f000000000000604482015290519081900360640190fd5b81838161136a57fe5b049392505050565b6000828201838110156112ea57604080517f08c379a000000000000000000000000000000000000000000000000000000000815260206004820152601b60248201527f536166654d6174683a206164646974696f6e206f766572666c6f770000000000604482015290519081900360640190fd5b3390565b816113f361101c565b6007556113fe610e65565b60065573ffffffffffffffffffffffffffffffffffffffff81161561145f57611426816104cc565b73ffffffffffffffffffffffffffffffffffffffff82166000908152600960209081526040808320939093556007546008909152919020555b6114698383611508565b50505050565b80156114ed5761147e83611579565b156114cc5760405173ffffffffffffffffffffffffffffffffffffffff83169082156108fc029083906000818181858888f193505050501580156114c6573d6000803e3d6000fd5b506114ed565b6114ed73ffffffffffffffffffffffffffffffffffffffff84168383611593565b505050565b600081831061150157816112ea565b5090919050565b73ffffffffffffffffffffffffffffffffffffffff82166000908152600260205260409020548181146105415773ffffffffffffffffffffffffffffffffffffffff831660009081526002602052604090208290556001546115709082906105209085611372565b60015592915050565b73ffffffffffffffffffffffffffffffffffffffff161590565b6040805173ffffffffffffffffffffffffffffffffffffffff8416602482015260448082018490528251808303909101815260649091019091526020810180517bffffffffffffffffffffffffffffffffffffffffffffffffffffffff167fa9059cbb000000000000000000000000000000000000000000000000000000001790526114ed908490606061167d826040518060400160405280602081526020017f5361666545524332303a206c6f772d6c6576656c2063616c6c206661696c65648152508573ffffffffffffffffffffffffffffffffffffffff166116f39092919063ffffffff16565b8051909150156114ed5780806020019051602081101561169c57600080fd5b50516114ed576040517f08c379a000000000000000000000000000000000000000000000000000000000815260040180806020018281038252602a8152602001806119f7602a913960400191505060405180910390fd5b6060611702848460008561170a565b949350505050565b606082471015611765576040517f08c379a00000000000000000000000000000000000000000000000000000000081526004018080602001828103825260268152602001806119b06026913960400191505060405180910390fd5b61176e856118c5565b6117d957604080517f08c379a000000000000000000000000000000000000000000000000000000000815260206004820152601d60248201527f416464726573733a2063616c6c20746f206e6f6e2d636f6e7472616374000000604482015290519081900360640190fd5b600060608673ffffffffffffffffffffffffffffffffffffffff1685876040518082805190602001908083835b6020831061184357805182527fffffffffffffffffffffffffffffffffffffffffffffffffffffffffffffffe09092019160209182019101611806565b6001836020036101000a03801982511681845116808217855250505050505090500191505060006040518083038185875af1925050503d80600081146118a5576040519150601f19603f3d011682016040523d82523d6000602084013e6118aa565b606091505b50915091506118ba8282866118cb565b979650505050505050565b3b151590565b606083156118da5750816112ea565b8251156118ea5782518084602001fd5b816040517f08c379a00000000000000000000000000000000000000000000000000000000081526004018080602001828103825283818151815260200191508051906020019080838360005b8381101561194e578181015183820152602001611936565b50505050905090810190601f16801561197b5780820380516001836020036101000a031916815260200191505b509250505060405180910390fdfe4f776e61626c653a206e6577206f776e657220697320746865207a65726f2061646472657373416464726573733a20696e73756666696369656e742062616c616e636520666f722063616c6c536166654d6174683a206d756c7469706c69636174696f6e206f766572666c6f775361666545524332303a204552433230206f7065726174696f6e20646964206e6f742073756363656564a26469706673582212208c65d1848519a4a7e2ac5158d9e45cdcd950084d0df23eb80b4c1505f85e35d664736f6c63430007040033",
  "immutableReferences": {
    "425": [
      {
        "length": 32,
        "start": 1687
      },
      {
        "length": 32,
        "start": 2984
      },
      {
        "length": 32,
        "start": 3774
      }
    ],
    "545": [
      {
        "length": 32,
        "start": 1629
      },
      {
        "length": 32,
        "start": 2193
      },
      {
        "length": 32,
        "start": 2790
      },
      {
        "length": 32,
        "start": 3461
      }
    ]
  },
  "source": "// SPDX-License-Identifier: MIT\n\npragma solidity >=0.6.0 <0.8.0;\n\nimport \"./SafeMath.sol\";\nimport \"./BaseGovernanceModule.sol\";\nimport \"./UniERC20.sol\";\nimport \"./BaseRewards.sol\";\n\n\ncontract GovernanceRewards is BaseGovernanceModule, BaseRewards {\n    using SafeMath for uint256;\n    using UniERC20 for IERC20;\n\n    // solhint-disable-next-line no-empty-blocks\n    constructor(IERC20 _gift, address _mothership) BaseGovernanceModule(_mothership) BaseRewards(_gift) {}\n\n    function _notifyStakeChanged(address account, uint256 newBalance) internal override updateReward(account) {\n        _set(account, newBalance);\n    }\n\n    function rescueFunds(IERC20 token, uint256 amount) external onlyOwner {\n        require(token != gift, \"Can't rescue gift\");\n\n        token.uniTransfer(msg.sender, amount);\n    }\n}\n",
  "sourcePath": "/home/phillipe/governance-contract/contracts/GovernanceRewards.sol",
  "compiler": {
    "name": "solc",
    "version": "0.7.4+commit.3f05b770.Emscripten.clang"
  },
  "schemaVersion": "3.3.3",
  "updatedAt": "2021-02-21T21:16:56.656Z",
  "devdoc": {
    "kind": "dev",
    "methods": {
      "owner()": {
        "details": "Returns the address of the current owner."
      },
      "renounceOwnership()": {
        "details": "Leaves the contract without owner. It will not be possible to call `onlyOwner` functions anymore. Can only be called by the current owner. NOTE: Renouncing ownership will leave the contract without an owner, thereby removing any functionality that is only available to the owner."
      },
      "transferOwnership(address)": {
        "details": "Transfers ownership of the contract to a new account (`newOwner`). Can only be called by the current owner."
      }
    },
    "version": 1
  },
  "userdoc": {
    "kind": "user",
    "methods": {},
    "version": 1
  }
}